{
  "_format": "hh3-artifact-1",
  "contractName": "BillsOfExchange",
  "sourceName": "contracts/BillsOfExchange.sol",
  "abi": [
    {
      "inputs": [
        {
          "internalType": "address",
          "name": "initialOwner",
          "type": "address"
        }
      ],
      "stateMutability": "nonpayable",
      "type": "constructor"
    },
    {
      "inputs": [],
      "name": "ECDSAInvalidSignature",
      "type": "error"
    },
    {
      "inputs": [
        {
          "internalType": "uint256",
          "name": "length",
          "type": "uint256"
        }
      ],
      "name": "ECDSAInvalidSignatureLength",
      "type": "error"
    },
    {
      "inputs": [
        {
          "internalType": "bytes32",
          "name": "s",
          "type": "bytes32"
        }
      ],
      "name": "ECDSAInvalidSignatureS",
      "type": "error"
    },
    {
      "inputs": [
        {
          "internalType": "address",
          "name": "spender",
          "type": "address"
        },
        {
          "internalType": "uint256",
          "name": "value",
          "type": "uint256"
        }
      ],
      "name": "ERC1363ApproveFailed",
      "type": "error"
    },
    {
      "inputs": [
        {
          "internalType": "address",
          "name": "receiver",
          "type": "address"
        }
      ],
      "name": "ERC1363InvalidReceiver",
      "type": "error"
    },
    {
      "inputs": [
        {
          "internalType": "address",
          "name": "spender",
          "type": "address"
        }
      ],
      "name": "ERC1363InvalidSpender",
      "type": "error"
    },
    {
      "inputs": [
        {
          "internalType": "address",
          "name": "receiver",
          "type": "address"
        },
        {
          "internalType": "uint256",
          "name": "value",
          "type": "uint256"
        }
      ],
      "name": "ERC1363TransferFailed",
      "type": "error"
    },
    {
      "inputs": [
        {
          "internalType": "address",
          "name": "sender",
          "type": "address"
        },
        {
          "internalType": "address",
          "name": "receiver",
          "type": "address"
        },
        {
          "internalType": "uint256",
          "name": "value",
          "type": "uint256"
        }
      ],
      "name": "ERC1363TransferFromFailed",
      "type": "error"
    },
    {
      "inputs": [
        {
          "internalType": "address",
          "name": "spender",
          "type": "address"
        },
        {
          "internalType": "uint256",
          "name": "allowance",
          "type": "uint256"
        },
        {
          "internalType": "uint256",
          "name": "needed",
          "type": "uint256"
        }
      ],
      "name": "ERC20InsufficientAllowance",
      "type": "error"
    },
    {
      "inputs": [
        {
          "internalType": "address",
          "name": "sender",
          "type": "address"
        },
        {
          "internalType": "uint256",
          "name": "balance",
          "type": "uint256"
        },
        {
          "internalType": "uint256",
          "name": "needed",
          "type": "uint256"
        }
      ],
      "name": "ERC20InsufficientBalance",
      "type": "error"
    },
    {
      "inputs": [
        {
          "internalType": "address",
          "name": "approver",
          "type": "address"
        }
      ],
      "name": "ERC20InvalidApprover",
      "type": "error"
    },
    {
      "inputs": [
        {
          "internalType": "address",
          "name": "receiver",
          "type": "address"
        }
      ],
      "name": "ERC20InvalidReceiver",
      "type": "error"
    },
    {
      "inputs": [
        {
          "internalType": "address",
          "name": "sender",
          "type": "address"
        }
      ],
      "name": "ERC20InvalidSender",
      "type": "error"
    },
    {
      "inputs": [
        {
          "internalType": "address",
          "name": "spender",
          "type": "address"
        }
      ],
      "name": "ERC20InvalidSpender",
      "type": "error"
    },
    {
      "inputs": [
        {
          "internalType": "uint256",
          "name": "deadline",
          "type": "uint256"
        }
      ],
      "name": "ERC2612ExpiredSignature",
      "type": "error"
    },
    {
      "inputs": [
        {
          "internalType": "address",
          "name": "signer",
          "type": "address"
        },
        {
          "internalType": "address",
          "name": "owner",
          "type": "address"
        }
      ],
      "name": "ERC2612InvalidSigner",
      "type": "error"
    },
    {
      "inputs": [
        {
          "internalType": "address",
          "name": "account",
          "type": "address"
        },
        {
          "internalType": "uint256",
          "name": "currentNonce",
          "type": "uint256"
        }
      ],
      "name": "InvalidAccountNonce",
      "type": "error"
    },
    {
      "inputs": [],
      "name": "InvalidShortString",
      "type": "error"
    },
    {
      "inputs": [
        {
          "internalType": "address",
          "name": "owner",
          "type": "address"
        }
      ],
      "name": "OwnableInvalidOwner",
      "type": "error"
    },
    {
      "inputs": [
        {
          "internalType": "address",
          "name": "account",
          "type": "address"
        }
      ],
      "name": "OwnableUnauthorizedAccount",
      "type": "error"
    },
    {
      "inputs": [
        {
          "internalType": "string",
          "name": "str",
          "type": "string"
        }
      ],
      "name": "StringTooLong",
      "type": "error"
    },
    {
      "anonymous": false,
      "inputs": [
        {
          "indexed": true,
          "internalType": "address",
          "name": "owner",
          "type": "address"
        },
        {
          "indexed": true,
          "internalType": "address",
          "name": "spender",
          "type": "address"
        },
        {
          "indexed": false,
          "internalType": "uint256",
          "name": "value",
          "type": "uint256"
        }
      ],
      "name": "Approval",
      "type": "event"
    },
    {
      "anonymous": false,
      "inputs": [],
      "name": "EIP712DomainChanged",
      "type": "event"
    },
    {
      "anonymous": false,
      "inputs": [
        {
          "indexed": true,
          "internalType": "address",
          "name": "previousOwner",
          "type": "address"
        },
        {
          "indexed": true,
          "internalType": "address",
          "name": "newOwner",
          "type": "address"
        }
      ],
      "name": "OwnershipTransferred",
      "type": "event"
    },
    {
      "anonymous": false,
      "inputs": [
        {
          "indexed": true,
          "internalType": "address",
          "name": "from",
          "type": "address"
        },
        {
          "indexed": true,
          "internalType": "address",
          "name": "to",
          "type": "address"
        },
        {
          "indexed": false,
          "internalType": "uint256",
          "name": "value",
          "type": "uint256"
        }
      ],
      "name": "Transfer",
      "type": "event"
    },
    {
      "inputs": [],
      "name": "DOMAIN_SEPARATOR",
      "outputs": [
        {
          "internalType": "bytes32",
          "name": "",
          "type": "bytes32"
        }
      ],
      "stateMutability": "view",
      "type": "function"
    },
    {
      "inputs": [
        {
          "internalType": "address",
          "name": "owner",
          "type": "address"
        },
        {
          "internalType": "address",
          "name": "spender",
          "type": "address"
        }
      ],
      "name": "allowance",
      "outputs": [
        {
          "internalType": "uint256",
          "name": "",
          "type": "uint256"
        }
      ],
      "stateMutability": "view",
      "type": "function"
    },
    {
      "inputs": [
        {
          "internalType": "address",
          "name": "spender",
          "type": "address"
        },
        {
          "internalType": "uint256",
          "name": "value",
          "type": "uint256"
        }
      ],
      "name": "approve",
      "outputs": [
        {
          "internalType": "bool",
          "name": "",
          "type": "bool"
        }
      ],
      "stateMutability": "nonpayable",
      "type": "function"
    },
    {
      "inputs": [
        {
          "internalType": "address",
          "name": "spender",
          "type": "address"
        },
        {
          "internalType": "uint256",
          "name": "value",
          "type": "uint256"
        }
      ],
      "name": "approveAndCall",
      "outputs": [
        {
          "internalType": "bool",
          "name": "",
          "type": "bool"
        }
      ],
      "stateMutability": "nonpayable",
      "type": "function"
    },
    {
      "inputs": [
        {
          "internalType": "address",
          "name": "spender",
          "type": "address"
        },
        {
          "internalType": "uint256",
          "name": "value",
          "type": "uint256"
        },
        {
          "internalType": "bytes",
          "name": "data",
          "type": "bytes"
        }
      ],
      "name": "approveAndCall",
      "outputs": [
        {
          "internalType": "bool",
          "name": "",
          "type": "bool"
        }
      ],
      "stateMutability": "nonpayable",
      "type": "function"
    },
    {
      "inputs": [
        {
          "internalType": "address",
          "name": "account",
          "type": "address"
        }
      ],
      "name": "balanceOf",
      "outputs": [
        {
          "internalType": "uint256",
          "name": "",
          "type": "uint256"
        }
      ],
      "stateMutability": "view",
      "type": "function"
    },
    {
      "inputs": [
        {
          "internalType": "uint256",
          "name": "value",
          "type": "uint256"
        }
      ],
      "name": "burn",
      "outputs": [],
      "stateMutability": "nonpayable",
      "type": "function"
    },
    {
      "inputs": [
        {
          "internalType": "address",
          "name": "account",
          "type": "address"
        },
        {
          "internalType": "uint256",
          "name": "value",
          "type": "uint256"
        }
      ],
      "name": "burnFrom",
      "outputs": [],
      "stateMutability": "nonpayable",
      "type": "function"
    },
    {
      "inputs": [],
      "name": "decimals",
      "outputs": [
        {
          "internalType": "uint8",
          "name": "",
          "type": "uint8"
        }
      ],
      "stateMutability": "view",
      "type": "function"
    },
    {
      "inputs": [],
      "name": "eip712Domain",
      "outputs": [
        {
          "internalType": "bytes1",
          "name": "fields",
          "type": "bytes1"
        },
        {
          "internalType": "string",
          "name": "name",
          "type": "string"
        },
        {
          "internalType": "string",
          "name": "version",
          "type": "string"
        },
        {
          "internalType": "uint256",
          "name": "chainId",
          "type": "uint256"
        },
        {
          "internalType": "address",
          "name": "verifyingContract",
          "type": "address"
        },
        {
          "internalType": "bytes32",
          "name": "salt",
          "type": "bytes32"
        },
        {
          "internalType": "uint256[]",
          "name": "extensions",
          "type": "uint256[]"
        }
      ],
      "stateMutability": "view",
      "type": "function"
    },
    {
      "inputs": [
        {
          "internalType": "address",
          "name": "to",
          "type": "address"
        },
        {
          "internalType": "uint256",
          "name": "amount",
          "type": "uint256"
        }
      ],
      "name": "mint",
      "outputs": [],
      "stateMutability": "nonpayable",
      "type": "function"
    },
    {
      "inputs": [],
      "name": "name",
      "outputs": [
        {
          "internalType": "string",
          "name": "",
          "type": "string"
        }
      ],
      "stateMutability": "view",
      "type": "function"
    },
    {
      "inputs": [
        {
          "internalType": "address",
          "name": "owner",
          "type": "address"
        }
      ],
      "name": "nonces",
      "outputs": [
        {
          "internalType": "uint256",
          "name": "",
          "type": "uint256"
        }
      ],
      "stateMutability": "view",
      "type": "function"
    },
    {
      "inputs": [],
      "name": "owner",
      "outputs": [
        {
          "internalType": "address",
          "name": "",
          "type": "address"
        }
      ],
      "stateMutability": "view",
      "type": "function"
    },
    {
      "inputs": [
        {
          "internalType": "address",
          "name": "owner",
          "type": "address"
        },
        {
          "internalType": "address",
          "name": "spender",
          "type": "address"
        },
        {
          "internalType": "uint256",
          "name": "value",
          "type": "uint256"
        },
        {
          "internalType": "uint256",
          "name": "deadline",
          "type": "uint256"
        },
        {
          "internalType": "uint8",
          "name": "v",
          "type": "uint8"
        },
        {
          "internalType": "bytes32",
          "name": "r",
          "type": "bytes32"
        },
        {
          "internalType": "bytes32",
          "name": "s",
          "type": "bytes32"
        }
      ],
      "name": "permit",
      "outputs": [],
      "stateMutability": "nonpayable",
      "type": "function"
    },
    {
      "inputs": [],
      "name": "renounceOwnership",
      "outputs": [],
      "stateMutability": "nonpayable",
      "type": "function"
    },
    {
      "inputs": [
        {
          "internalType": "bytes4",
          "name": "interfaceId",
          "type": "bytes4"
        }
      ],
      "name": "supportsInterface",
      "outputs": [
        {
          "internalType": "bool",
          "name": "",
          "type": "bool"
        }
      ],
      "stateMutability": "view",
      "type": "function"
    },
    {
      "inputs": [],
      "name": "symbol",
      "outputs": [
        {
          "internalType": "string",
          "name": "",
          "type": "string"
        }
      ],
      "stateMutability": "view",
      "type": "function"
    },
    {
      "inputs": [],
      "name": "totalSupply",
      "outputs": [
        {
          "internalType": "uint256",
          "name": "",
          "type": "uint256"
        }
      ],
      "stateMutability": "view",
      "type": "function"
    },
    {
      "inputs": [
        {
          "internalType": "address",
          "name": "to",
          "type": "address"
        },
        {
          "internalType": "uint256",
          "name": "value",
          "type": "uint256"
        }
      ],
      "name": "transfer",
      "outputs": [
        {
          "internalType": "bool",
          "name": "",
          "type": "bool"
        }
      ],
      "stateMutability": "nonpayable",
      "type": "function"
    },
    {
      "inputs": [
        {
          "internalType": "address",
          "name": "to",
          "type": "address"
        },
        {
          "internalType": "uint256",
          "name": "value",
          "type": "uint256"
        }
      ],
      "name": "transferAndCall",
      "outputs": [
        {
          "internalType": "bool",
          "name": "",
          "type": "bool"
        }
      ],
      "stateMutability": "nonpayable",
      "type": "function"
    },
    {
      "inputs": [
        {
          "internalType": "address",
          "name": "to",
          "type": "address"
        },
        {
          "internalType": "uint256",
          "name": "value",
          "type": "uint256"
        },
        {
          "internalType": "bytes",
          "name": "data",
          "type": "bytes"
        }
      ],
      "name": "transferAndCall",
      "outputs": [
        {
          "internalType": "bool",
          "name": "",
          "type": "bool"
        }
      ],
      "stateMutability": "nonpayable",
      "type": "function"
    },
    {
      "inputs": [
        {
          "internalType": "address",
          "name": "from",
          "type": "address"
        },
        {
          "internalType": "address",
          "name": "to",
          "type": "address"
        },
        {
          "internalType": "uint256",
          "name": "value",
          "type": "uint256"
        }
      ],
      "name": "transferFrom",
      "outputs": [
        {
          "internalType": "bool",
          "name": "",
          "type": "bool"
        }
      ],
      "stateMutability": "nonpayable",
      "type": "function"
    },
    {
      "inputs": [
        {
          "internalType": "address",
          "name": "from",
          "type": "address"
        },
        {
          "internalType": "address",
          "name": "to",
          "type": "address"
        },
        {
          "internalType": "uint256",
          "name": "value",
          "type": "uint256"
        },
        {
          "internalType": "bytes",
          "name": "data",
          "type": "bytes"
        }
      ],
      "name": "transferFromAndCall",
      "outputs": [
        {
          "internalType": "bool",
          "name": "",
          "type": "bool"
        }
      ],
      "stateMutability": "nonpayable",
      "type": "function"
    },
    {
      "inputs": [
        {
          "internalType": "address",
          "name": "from",
          "type": "address"
        },
        {
          "internalType": "address",
          "name": "to",
          "type": "address"
        },
        {
          "internalType": "uint256",
          "name": "value",
          "type": "uint256"
        }
      ],
      "name": "transferFromAndCall",
      "outputs": [
        {
          "internalType": "bool",
          "name": "",
          "type": "bool"
        }
      ],
      "stateMutability": "nonpayable",
      "type": "function"
    },
    {
      "inputs": [
        {
          "internalType": "address",
          "name": "newOwner",
          "type": "address"
        }
      ],
      "name": "transferOwnership",
      "outputs": [],
      "stateMutability": "nonpayable",
      "type": "function"
    }
  ],
  "bytecode": "0x610160604052348015610010575f5ffd5b50604051611c6d380380611c6d83398101604081905261002f91610285565b6040518060400160405280600f81526020016e42696c6c734f6645786368616e676560881b81525080604051806040016040528060018152602001603160f81b815250836040518060400160405280600f81526020016e42696c6c734f6645786368616e676560881b815250604051806040016040528060038152602001622127a360e91b81525081600390816100c6919061034a565b5060046100d3828261034a565b5050506001600160a01b03811661010457604051631e4fbdf760e01b81525f60048201526024015b60405180910390fd5b61010d816101c5565b50610119826006610216565b61012052610128816007610216565b61014052815160208084019190912060e052815190820120610100524660a0526101b460e05161010051604080517f8b73c3c69bb8fe3d512ecc4cf759cc79239f7b179b0ffacaa9a75d522b39400f60208201529081019290925260608201524660808201523060a08201525f9060c00160405160208183030381529060405280519060200120905090565b60805250503060c0525061045c9050565b600580546001600160a01b038381166001600160a01b0319831681179093556040519116919082907f8be0079c531659141344cd1fd0a4f28419497f9722a3daafe3b4186f6b6457e0905f90a35050565b5f6020835110156102315761022a83610248565b9050610242565b8161023c848261034a565b5060ff90505b92915050565b5f5f829050601f81511115610272578260405163305a27a960e01b81526004016100fb9190610404565b805161027d82610439565b179392505050565b5f60208284031215610295575f5ffd5b81516001600160a01b03811681146102ab575f5ffd5b9392505050565b634e487b7160e01b5f52604160045260245ffd5b600181811c908216806102da57607f821691505b6020821081036102f857634e487b7160e01b5f52602260045260245ffd5b50919050565b601f82111561034557805f5260205f20601f840160051c810160208510156103235750805b601f840160051c820191505b81811015610342575f815560010161032f565b50505b505050565b81516001600160401b03811115610363576103636102b2565b6103778161037184546102c6565b846102fe565b6020601f8211600181146103a9575f83156103925750848201515b5f19600385901b1c1916600184901b178455610342565b5f84815260208120601f198516915b828110156103d857878501518255602094850194600190920191016103b8565b50848210156103f557868401515f19600387901b60f8161c191681555b50505050600190811b01905550565b602081525f82518060208401528060208501604085015e5f604082850101526040601f19601f83011684010191505092915050565b805160208083015191908110156102f8575f1960209190910360031b1b16919050565b60805160a05160c05160e0516101005161012051610140516117c06104ad5f395f610cb501525f610c8801525f6109fe01525f6109d601525f61093101525f61095b01525f61098501526117c05ff3fe608060405234801561000f575f5ffd5b5060043610610187575f3560e01c8063715018a6116100d9578063a9059cbb11610093578063d505accf1161006e578063d505accf14610345578063d8fbe99414610358578063dd62ed3e1461036b578063f2fde38b146103a3575f5ffd5b8063a9059cbb1461030c578063c1d34b891461031f578063cae9ca5114610332575f5ffd5b8063715018a6146102a057806379cc6790146102a85780637ecebe00146102bb57806384b0196e146102ce5780638da5cb5b146102e957806395d89b4114610304575f5ffd5b8063313ce567116101445780634000aea01161011f5780634000aea01461023d57806340c10f191461025057806342966c681461026557806370a0823114610278575f5ffd5b8063313ce567146102135780633177029f146102225780633644e51514610235575f5ffd5b806301ffc9a71461018b57806306fdde03146101b3578063095ea7b3146101c85780631296ee62146101db57806318160ddd146101ee57806323b872dd14610200575b5f5ffd5b61019e610199366004611307565b6103b6565b60405190151581526020015b60405180910390f35b6101bb6103ec565b6040516101aa9190611350565b61019e6101d636600461137d565b61047c565b61019e6101e936600461137d565b610493565b6002545b6040519081526020016101aa565b61019e61020e3660046113a5565b6104b4565b604051601281526020016101aa565b61019e61023036600461137d565b6104d7565b6101f26104f1565b61019e61024b36600461147e565b6104ff565b61026361025e36600461137d565b61054b565b005b6102636102733660046114d1565b610561565b6101f26102863660046114e8565b6001600160a01b03165f9081526020819052604090205490565b61026361056e565b6102636102b636600461137d565b610581565b6101f26102c93660046114e8565b610596565b6102d66105b3565b6040516101aa9796959493929190611501565b6005546040516001600160a01b0390911681526020016101aa565b6101bb6105f5565b61019e61031a36600461137d565b610604565b61019e61032d366004611597565b610611565b61019e61034036600461147e565b610661565b6102636103533660046115fb565b6106a7565b61019e6103663660046113a5565b6107dd565b6101f2610379366004611668565b6001600160a01b039182165f90815260016020908152604080832093909416825291909152205490565b6102636103b13660046114e8565b610800565b5f6001600160e01b0319821663b0202a1160e01b14806103e657506301ffc9a760e01b6001600160e01b03198316145b92915050565b6060600380546103fb90611699565b80601f016020809104026020016040519081016040528092919081815260200182805461042790611699565b80156104725780601f1061044957610100808354040283529160200191610472565b820191905f5260205f20905b81548152906001019060200180831161045557829003601f168201915b5050505050905090565b5f3361048981858561083a565b5060019392505050565b5f6104ad838360405180602001604052805f8152506104ff565b9392505050565b5f336104c185828561084c565b6104cc8585856108c8565b506001949350505050565b5f6104ad838360405180602001604052805f815250610661565b5f6104fa610925565b905090565b5f61050a8484610604565b61053e5760405163118d81d760e11b81526001600160a01b0385166004820152602481018490526044015b60405180910390fd5b6104893333868686610a4e565b610553610b9b565b61055d8282610bc8565b5050565b61056b3382610bfc565b50565b610576610b9b565b61057f5f610c30565b565b61058c82338361084c565b61055d8282610bfc565b6001600160a01b0381165f908152600860205260408120546103e6565b5f6060805f5f5f60606105c4610c81565b6105cc610cae565b604080515f80825260208201909252600f60f81b9b939a50919850469750309650945092509050565b6060600480546103fb90611699565b5f336104898185856108c8565b5f61061d8585856104b4565b61065457604051635ab42af360e11b81526001600160a01b0380871660048301528516602482015260448101849052606401610535565b6104cc3386868686610a4e565b5f61066c848461047c565b61069b57604051631439557160e21b81526001600160a01b038516600482015260248101849052604401610535565b61048933858585610cdb565b834211156106cb5760405163313c898160e11b815260048101859052602401610535565b5f7f6e71edae12b1b97f4d1f60370fef10105fa2faae0126114a169c64845d6126c98888886107168c6001600160a01b03165f90815260086020526040902080546001810190915590565b6040805160208101969096526001600160a01b0394851690860152929091166060840152608083015260a082015260c0810186905260e0016040516020818303038152906040528051906020012090505f61077082610e15565b90505f61077f82878787610e41565b9050896001600160a01b0316816001600160a01b0316146107c6576040516325c0072360e11b81526001600160a01b0380831660048301528b166024820152604401610535565b6107d18a8a8a61083a565b50505050505050505050565b5f6107f884848460405180602001604052805f815250610611565b949350505050565b610808610b9b565b6001600160a01b03811661083157604051631e4fbdf760e01b81525f6004820152602401610535565b61056b81610c30565b6108478383836001610e6d565b505050565b6001600160a01b038381165f908152600160209081526040808320938616835292905220545f198110156108c257818110156108b457604051637dc7a0d960e11b81526001600160a01b03841660048201526024810182905260448101839052606401610535565b6108c284848484035f610e6d565b50505050565b6001600160a01b0383166108f157604051634b637e8f60e11b81525f6004820152602401610535565b6001600160a01b03821661091a5760405163ec442f0560e01b81525f6004820152602401610535565b610847838383610f3f565b5f306001600160a01b037f00000000000000000000000000000000000000000000000000000000000000001614801561097d57507f000000000000000000000000000000000000000000000000000000000000000046145b156109a757507f000000000000000000000000000000000000000000000000000000000000000090565b6104fa604080517f8b73c3c69bb8fe3d512ecc4cf759cc79239f7b179b0ffacaa9a75d522b39400f60208201527f0000000000000000000000000000000000000000000000000000000000000000918101919091527f000000000000000000000000000000000000000000000000000000000000000060608201524660808201523060a08201525f9060c00160405160208183030381529060405280519060200120905090565b826001600160a01b03163b5f03610a83576040516322a5b36760e21b81526001600160a01b0384166004820152602401610535565b604051632229f29760e21b81526001600160a01b038416906388a7ca5c90610ab59088908890879087906004016116d1565b6020604051808303815f875af1925050508015610aef575060408051601f3d908101601f19168201909252610aec9181019061170d565b60015b610b56573d808015610b1c576040519150601f19603f3d011682016040523d82523d5f602084013e610b21565b606091505b5080515f03610b4e576040516322a5b36760e21b81526001600160a01b0385166004820152602401610535565b805160208201fd5b6001600160e01b03198116632229f29760e21b14610b92576040516322a5b36760e21b81526001600160a01b0385166004820152602401610535565b505b5050505050565b6005546001600160a01b0316331461057f5760405163118cdaa760e01b8152336004820152602401610535565b6001600160a01b038216610bf15760405163ec442f0560e01b81525f6004820152602401610535565b61055d5f8383610f3f565b6001600160a01b038216610c2557604051634b637e8f60e11b81525f6004820152602401610535565b61055d825f83610f3f565b600580546001600160a01b038381166001600160a01b0319831681179093556040519116919082907f8be0079c531659141344cd1fd0a4f28419497f9722a3daafe3b4186f6b6457e0905f90a35050565b60606104fa7f00000000000000000000000000000000000000000000000000000000000000006006611065565b60606104fa7f00000000000000000000000000000000000000000000000000000000000000006007611065565b826001600160a01b03163b5f03610d105760405163deb6d3ed60e01b81526001600160a01b0384166004820152602401610535565b6040516307b04a2d60e41b81526001600160a01b03841690637b04a2d090610d4090879086908690600401611728565b6020604051808303815f875af1925050508015610d7a575060408051601f3d908101601f19168201909252610d779181019061170d565b60015b610dd9573d808015610da7576040519150601f19603f3d011682016040523d82523d5f602084013e610dac565b606091505b5080515f03610b4e5760405163deb6d3ed60e01b81526001600160a01b0385166004820152602401610535565b6001600160e01b031981166307b04a2d60e41b14610b945760405163deb6d3ed60e01b81526001600160a01b0385166004820152602401610535565b5f6103e6610e21610925565b8360405161190160f01b8152600281019290925260228201526042902090565b5f5f5f5f610e518888888861110e565b925092509250610e6182826111d6565b50909695505050505050565b6001600160a01b038416610e965760405163e602df0560e01b81525f6004820152602401610535565b6001600160a01b038316610ebf57604051634a1406b160e11b81525f6004820152602401610535565b6001600160a01b038085165f90815260016020908152604080832093871683529290522082905580156108c257826001600160a01b0316846001600160a01b03167f8c5be1e5ebec7d5bd14f71427d1e84f3dd0314c0f7b2291e5b200ac8c7c3b92584604051610f3191815260200190565b60405180910390a350505050565b6001600160a01b038316610f69578060025f828254610f5e9190611757565b90915550610fd99050565b6001600160a01b0383165f9081526020819052604090205481811015610fbb5760405163391434e360e21b81526001600160a01b03851660048201526024810182905260448101839052606401610535565b6001600160a01b0384165f9081526020819052604090209082900390555b6001600160a01b038216610ff557600280548290039055611013565b6001600160a01b0382165f9081526020819052604090208054820190555b816001600160a01b0316836001600160a01b03167fddf252ad1be2c89b69c2b068fc378daa952ba7f163c4a11628f55a4df523b3ef8360405161105891815260200190565b60405180910390a3505050565b606060ff831461107f576110788361128e565b90506103e6565b81805461108b90611699565b80601f01602080910402602001604051908101604052809291908181526020018280546110b790611699565b80156111025780601f106110d957610100808354040283529160200191611102565b820191905f5260205f20905b8154815290600101906020018083116110e557829003601f168201915b505050505090506103e6565b5f80807f7fffffffffffffffffffffffffffffff5d576e7357a4501ddfe92f46681b20a084111561114757505f915060039050826111cc565b604080515f808252602082018084528a905260ff891692820192909252606081018790526080810186905260019060a0016020604051602081039080840390855afa158015611198573d5f5f3e3d5ffd5b5050604051601f1901519150506001600160a01b0381166111c357505f9250600191508290506111cc565b92505f91508190505b9450945094915050565b5f8260038111156111e9576111e9611776565b036111f2575050565b600182600381111561120657611206611776565b036112245760405163f645eedf60e01b815260040160405180910390fd5b600282600381111561123857611238611776565b036112595760405163fce698f760e01b815260048101829052602401610535565b600382600381111561126d5761126d611776565b0361055d576040516335e2f38360e21b815260048101829052602401610535565b60605f61129a836112cb565b6040805160208082528183019092529192505f91906020820181803683375050509182525060208101929092525090565b5f60ff8216601f8111156103e657604051632cd44ac360e21b815260040160405180910390fd5b6001600160e01b03198116811461056b575f5ffd5b5f60208284031215611317575f5ffd5b81356104ad816112f2565b5f81518084528060208401602086015e5f602082860101526020601f19601f83011685010191505092915050565b602081525f6104ad6020830184611322565b80356001600160a01b0381168114611378575f5ffd5b919050565b5f5f6040838503121561138e575f5ffd5b61139783611362565b946020939093013593505050565b5f5f5f606084860312156113b7575f5ffd5b6113c084611362565b92506113ce60208501611362565b929592945050506040919091013590565b634e487b7160e01b5f52604160045260245ffd5b5f82601f830112611402575f5ffd5b813567ffffffffffffffff81111561141c5761141c6113df565b604051601f8201601f19908116603f0116810167ffffffffffffffff8111828210171561144b5761144b6113df565b604052818152838201602001851015611462575f5ffd5b816020850160208301375f918101602001919091529392505050565b5f5f5f60608486031215611490575f5ffd5b61149984611362565b925060208401359150604084013567ffffffffffffffff8111156114bb575f5ffd5b6114c7868287016113f3565b9150509250925092565b5f602082840312156114e1575f5ffd5b5035919050565b5f602082840312156114f8575f5ffd5b6104ad82611362565b60ff60f81b8816815260e060208201525f61151f60e0830189611322565b82810360408401526115318189611322565b606084018890526001600160a01b038716608085015260a0840186905283810360c0850152845180825260208087019350909101905f5b81811015611586578351835260209384019390920191600101611568565b50909b9a5050505050505050505050565b5f5f5f5f608085870312156115aa575f5ffd5b6115b385611362565b93506115c160208601611362565b925060408501359150606085013567ffffffffffffffff8111156115e3575f5ffd5b6115ef878288016113f3565b91505092959194509250565b5f5f5f5f5f5f5f60e0888a031215611611575f5ffd5b61161a88611362565b965061162860208901611362565b95506040880135945060608801359350608088013560ff8116811461164b575f5ffd5b9699959850939692959460a0840135945060c09093013592915050565b5f5f60408385031215611679575f5ffd5b61168283611362565b915061169060208401611362565b90509250929050565b600181811c908216806116ad57607f821691505b6020821081036116cb57634e487b7160e01b5f52602260045260245ffd5b50919050565b6001600160a01b03858116825284166020820152604081018390526080606082018190525f9061170390830184611322565b9695505050505050565b5f6020828403121561171d575f5ffd5b81516104ad816112f2565b60018060a01b0384168152826020820152606060408201525f61174e6060830184611322565b95945050505050565b808201808211156103e657634e487b7160e01b5f52601160045260245ffd5b634e487b7160e01b5f52602160045260245ffdfea2646970667358221220abaa52b32b635c94b561d9e4fa55cb631c96602af516808c474f31c414c6f41064736f6c634300081c0033",
  "linkReferences": {},
  "deployedLinkReferences": {},
  "immutableReferences": {
    "3941": [
      {
        "length": 32,
        "start": 2437
      }
    ],
    "3943": [
      {
        "length": 32,
        "start": 2395
      }
    ],
    "3945": [
      {
        "length": 32,
        "start": 2353
      }
    ],
    "3947": [
      {
        "length": 32,
        "start": 2518
      }
    ],
    "3949": [
      {
        "length": 32,
        "start": 2558
      }
    ],
    "3952": [
      {
        "length": 32,
        "start": 3208
      }
    ],
    "3955": [
      {
        "length": 32,
        "start": 3253
      }
    ]
  },
  "inputSourceName": "project/contracts/BillsOfExchange.sol",
  "buildInfoId": "solc-0_8_28-47005dd768aea9af634bd23e2438d8de880612fd"
}