{
  "_format": "hh3-artifact-1",
  "contractName": "BillsOfExchange",
  "sourceName": "contracts/BillsOfExchange.sol",
  "abi": [
    {
      "inputs": [
        {
          "internalType": "address",
          "name": "_draweeEthereumAddress",
          "type": "address"
        }
      ],
      "stateMutability": "nonpayable",
      "type": "constructor"
    },
    {
      "inputs": [],
      "name": "ECDSAInvalidSignature",
      "type": "error"
    },
    {
      "inputs": [
        {
          "internalType": "uint256",
          "name": "length",
          "type": "uint256"
        }
      ],
      "name": "ECDSAInvalidSignatureLength",
      "type": "error"
    },
    {
      "inputs": [
        {
          "internalType": "bytes32",
          "name": "s",
          "type": "bytes32"
        }
      ],
      "name": "ECDSAInvalidSignatureS",
      "type": "error"
    },
    {
      "inputs": [
        {
          "internalType": "address",
          "name": "spender",
          "type": "address"
        },
        {
          "internalType": "uint256",
          "name": "value",
          "type": "uint256"
        }
      ],
      "name": "ERC1363ApproveFailed",
      "type": "error"
    },
    {
      "inputs": [
        {
          "internalType": "address",
          "name": "receiver",
          "type": "address"
        }
      ],
      "name": "ERC1363InvalidReceiver",
      "type": "error"
    },
    {
      "inputs": [
        {
          "internalType": "address",
          "name": "spender",
          "type": "address"
        }
      ],
      "name": "ERC1363InvalidSpender",
      "type": "error"
    },
    {
      "inputs": [
        {
          "internalType": "address",
          "name": "receiver",
          "type": "address"
        },
        {
          "internalType": "uint256",
          "name": "value",
          "type": "uint256"
        }
      ],
      "name": "ERC1363TransferFailed",
      "type": "error"
    },
    {
      "inputs": [
        {
          "internalType": "address",
          "name": "sender",
          "type": "address"
        },
        {
          "internalType": "address",
          "name": "receiver",
          "type": "address"
        },
        {
          "internalType": "uint256",
          "name": "value",
          "type": "uint256"
        }
      ],
      "name": "ERC1363TransferFromFailed",
      "type": "error"
    },
    {
      "inputs": [
        {
          "internalType": "address",
          "name": "spender",
          "type": "address"
        },
        {
          "internalType": "uint256",
          "name": "allowance",
          "type": "uint256"
        },
        {
          "internalType": "uint256",
          "name": "needed",
          "type": "uint256"
        }
      ],
      "name": "ERC20InsufficientAllowance",
      "type": "error"
    },
    {
      "inputs": [
        {
          "internalType": "address",
          "name": "sender",
          "type": "address"
        },
        {
          "internalType": "uint256",
          "name": "balance",
          "type": "uint256"
        },
        {
          "internalType": "uint256",
          "name": "needed",
          "type": "uint256"
        }
      ],
      "name": "ERC20InsufficientBalance",
      "type": "error"
    },
    {
      "inputs": [
        {
          "internalType": "address",
          "name": "approver",
          "type": "address"
        }
      ],
      "name": "ERC20InvalidApprover",
      "type": "error"
    },
    {
      "inputs": [
        {
          "internalType": "address",
          "name": "receiver",
          "type": "address"
        }
      ],
      "name": "ERC20InvalidReceiver",
      "type": "error"
    },
    {
      "inputs": [
        {
          "internalType": "address",
          "name": "sender",
          "type": "address"
        }
      ],
      "name": "ERC20InvalidSender",
      "type": "error"
    },
    {
      "inputs": [
        {
          "internalType": "address",
          "name": "spender",
          "type": "address"
        }
      ],
      "name": "ERC20InvalidSpender",
      "type": "error"
    },
    {
      "inputs": [
        {
          "internalType": "uint256",
          "name": "deadline",
          "type": "uint256"
        }
      ],
      "name": "ERC2612ExpiredSignature",
      "type": "error"
    },
    {
      "inputs": [
        {
          "internalType": "address",
          "name": "signer",
          "type": "address"
        },
        {
          "internalType": "address",
          "name": "owner",
          "type": "address"
        }
      ],
      "name": "ERC2612InvalidSigner",
      "type": "error"
    },
    {
      "inputs": [
        {
          "internalType": "address",
          "name": "account",
          "type": "address"
        },
        {
          "internalType": "uint256",
          "name": "currentNonce",
          "type": "uint256"
        }
      ],
      "name": "InvalidAccountNonce",
      "type": "error"
    },
    {
      "inputs": [],
      "name": "InvalidShortString",
      "type": "error"
    },
    {
      "inputs": [
        {
          "internalType": "address",
          "name": "owner",
          "type": "address"
        }
      ],
      "name": "OwnableInvalidOwner",
      "type": "error"
    },
    {
      "inputs": [
        {
          "internalType": "address",
          "name": "account",
          "type": "address"
        }
      ],
      "name": "OwnableUnauthorizedAccount",
      "type": "error"
    },
    {
      "inputs": [
        {
          "internalType": "string",
          "name": "str",
          "type": "string"
        }
      ],
      "name": "StringTooLong",
      "type": "error"
    },
    {
      "anonymous": false,
      "inputs": [
        {
          "indexed": false,
          "internalType": "uint256",
          "name": "acceptedOnUnixTime",
          "type": "uint256"
        }
      ],
      "name": "Acceptance",
      "type": "event"
    },
    {
      "anonymous": false,
      "inputs": [
        {
          "indexed": true,
          "internalType": "address",
          "name": "owner",
          "type": "address"
        },
        {
          "indexed": true,
          "internalType": "address",
          "name": "spender",
          "type": "address"
        },
        {
          "indexed": false,
          "internalType": "uint256",
          "name": "value",
          "type": "uint256"
        }
      ],
      "name": "Approval",
      "type": "event"
    },
    {
      "anonymous": false,
      "inputs": [],
      "name": "EIP712DomainChanged",
      "type": "event"
    },
    {
      "anonymous": false,
      "inputs": [
        {
          "indexed": true,
          "internalType": "address",
          "name": "previousOwner",
          "type": "address"
        },
        {
          "indexed": true,
          "internalType": "address",
          "name": "newOwner",
          "type": "address"
        }
      ],
      "name": "OwnershipTransferred",
      "type": "event"
    },
    {
      "anonymous": false,
      "inputs": [
        {
          "indexed": true,
          "internalType": "address",
          "name": "from",
          "type": "address"
        },
        {
          "indexed": true,
          "internalType": "address",
          "name": "to",
          "type": "address"
        },
        {
          "indexed": false,
          "internalType": "uint256",
          "name": "value",
          "type": "uint256"
        }
      ],
      "name": "Transfer",
      "type": "event"
    },
    {
      "inputs": [],
      "name": "DOMAIN_SEPARATOR",
      "outputs": [
        {
          "internalType": "bytes32",
          "name": "",
          "type": "bytes32"
        }
      ],
      "stateMutability": "view",
      "type": "function"
    },
    {
      "inputs": [],
      "name": "accept",
      "outputs": [
        {
          "internalType": "bool",
          "name": "success",
          "type": "bool"
        }
      ],
      "stateMutability": "nonpayable",
      "type": "function"
    },
    {
      "inputs": [],
      "name": "acceptedOnUnixTime",
      "outputs": [
        {
          "internalType": "uint256",
          "name": "",
          "type": "uint256"
        }
      ],
      "stateMutability": "view",
      "type": "function"
    },
    {
      "inputs": [
        {
          "internalType": "address",
          "name": "owner",
          "type": "address"
        },
        {
          "internalType": "address",
          "name": "spender",
          "type": "address"
        }
      ],
      "name": "allowance",
      "outputs": [
        {
          "internalType": "uint256",
          "name": "",
          "type": "uint256"
        }
      ],
      "stateMutability": "view",
      "type": "function"
    },
    {
      "inputs": [
        {
          "internalType": "address",
          "name": "spender",
          "type": "address"
        },
        {
          "internalType": "uint256",
          "name": "value",
          "type": "uint256"
        }
      ],
      "name": "approve",
      "outputs": [
        {
          "internalType": "bool",
          "name": "",
          "type": "bool"
        }
      ],
      "stateMutability": "nonpayable",
      "type": "function"
    },
    {
      "inputs": [
        {
          "internalType": "address",
          "name": "spender",
          "type": "address"
        },
        {
          "internalType": "uint256",
          "name": "value",
          "type": "uint256"
        }
      ],
      "name": "approveAndCall",
      "outputs": [
        {
          "internalType": "bool",
          "name": "",
          "type": "bool"
        }
      ],
      "stateMutability": "nonpayable",
      "type": "function"
    },
    {
      "inputs": [
        {
          "internalType": "address",
          "name": "spender",
          "type": "address"
        },
        {
          "internalType": "uint256",
          "name": "value",
          "type": "uint256"
        },
        {
          "internalType": "bytes",
          "name": "data",
          "type": "bytes"
        }
      ],
      "name": "approveAndCall",
      "outputs": [
        {
          "internalType": "bool",
          "name": "",
          "type": "bool"
        }
      ],
      "stateMutability": "nonpayable",
      "type": "function"
    },
    {
      "inputs": [
        {
          "internalType": "address",
          "name": "account",
          "type": "address"
        }
      ],
      "name": "balanceOf",
      "outputs": [
        {
          "internalType": "uint256",
          "name": "",
          "type": "uint256"
        }
      ],
      "stateMutability": "view",
      "type": "function"
    },
    {
      "inputs": [
        {
          "internalType": "uint256",
          "name": "value",
          "type": "uint256"
        }
      ],
      "name": "burn",
      "outputs": [],
      "stateMutability": "nonpayable",
      "type": "function"
    },
    {
      "inputs": [
        {
          "internalType": "address",
          "name": "account",
          "type": "address"
        },
        {
          "internalType": "uint256",
          "name": "value",
          "type": "uint256"
        }
      ],
      "name": "burnFrom",
      "outputs": [],
      "stateMutability": "nonpayable",
      "type": "function"
    },
    {
      "inputs": [],
      "name": "currency",
      "outputs": [
        {
          "internalType": "string",
          "name": "",
          "type": "string"
        }
      ],
      "stateMutability": "view",
      "type": "function"
    },
    {
      "inputs": [],
      "name": "decimals",
      "outputs": [
        {
          "internalType": "uint8",
          "name": "",
          "type": "uint8"
        }
      ],
      "stateMutability": "view",
      "type": "function"
    },
    {
      "inputs": [],
      "name": "description",
      "outputs": [
        {
          "internalType": "string",
          "name": "",
          "type": "string"
        }
      ],
      "stateMutability": "view",
      "type": "function"
    },
    {
      "inputs": [],
      "name": "drawee",
      "outputs": [
        {
          "internalType": "string",
          "name": "",
          "type": "string"
        }
      ],
      "stateMutability": "view",
      "type": "function"
    },
    {
      "inputs": [],
      "name": "draweeEthereumAddress",
      "outputs": [
        {
          "internalType": "address",
          "name": "",
          "type": "address"
        }
      ],
      "stateMutability": "view",
      "type": "function"
    },
    {
      "inputs": [],
      "name": "drawer",
      "outputs": [
        {
          "internalType": "string",
          "name": "",
          "type": "string"
        }
      ],
      "stateMutability": "view",
      "type": "function"
    },
    {
      "inputs": [],
      "name": "drawerEthereumAddress",
      "outputs": [
        {
          "internalType": "address",
          "name": "",
          "type": "address"
        }
      ],
      "stateMutability": "view",
      "type": "function"
    },
    {
      "inputs": [],
      "name": "eip712Domain",
      "outputs": [
        {
          "internalType": "bytes1",
          "name": "fields",
          "type": "bytes1"
        },
        {
          "internalType": "string",
          "name": "name",
          "type": "string"
        },
        {
          "internalType": "string",
          "name": "version",
          "type": "string"
        },
        {
          "internalType": "uint256",
          "name": "chainId",
          "type": "uint256"
        },
        {
          "internalType": "address",
          "name": "verifyingContract",
          "type": "address"
        },
        {
          "internalType": "bytes32",
          "name": "salt",
          "type": "bytes32"
        },
        {
          "internalType": "uint256[]",
          "name": "extensions",
          "type": "uint256[]"
        }
      ],
      "stateMutability": "view",
      "type": "function"
    },
    {
      "inputs": [],
      "name": "issuedOnUnixTime",
      "outputs": [
        {
          "internalType": "uint256",
          "name": "",
          "type": "uint256"
        }
      ],
      "stateMutability": "view",
      "type": "function"
    },
    {
      "inputs": [],
      "name": "name",
      "outputs": [
        {
          "internalType": "string",
          "name": "",
          "type": "string"
        }
      ],
      "stateMutability": "view",
      "type": "function"
    },
    {
      "inputs": [
        {
          "internalType": "address",
          "name": "owner",
          "type": "address"
        }
      ],
      "name": "nonces",
      "outputs": [
        {
          "internalType": "uint256",
          "name": "",
          "type": "uint256"
        }
      ],
      "stateMutability": "view",
      "type": "function"
    },
    {
      "inputs": [],
      "name": "order",
      "outputs": [
        {
          "internalType": "string",
          "name": "",
          "type": "string"
        }
      ],
      "stateMutability": "view",
      "type": "function"
    },
    {
      "inputs": [],
      "name": "owner",
      "outputs": [
        {
          "internalType": "address",
          "name": "",
          "type": "address"
        }
      ],
      "stateMutability": "view",
      "type": "function"
    },
    {
      "inputs": [
        {
          "internalType": "address",
          "name": "owner",
          "type": "address"
        },
        {
          "internalType": "address",
          "name": "spender",
          "type": "address"
        },
        {
          "internalType": "uint256",
          "name": "value",
          "type": "uint256"
        },
        {
          "internalType": "uint256",
          "name": "deadline",
          "type": "uint256"
        },
        {
          "internalType": "uint8",
          "name": "v",
          "type": "uint8"
        },
        {
          "internalType": "bytes32",
          "name": "r",
          "type": "bytes32"
        },
        {
          "internalType": "bytes32",
          "name": "s",
          "type": "bytes32"
        }
      ],
      "name": "permit",
      "outputs": [],
      "stateMutability": "nonpayable",
      "type": "function"
    },
    {
      "inputs": [],
      "name": "placeWherePaymentIsToBeMade",
      "outputs": [
        {
          "internalType": "string",
          "name": "",
          "type": "string"
        }
      ],
      "stateMutability": "view",
      "type": "function"
    },
    {
      "inputs": [],
      "name": "placeWhereTheBillIsIssued",
      "outputs": [
        {
          "internalType": "string",
          "name": "",
          "type": "string"
        }
      ],
      "stateMutability": "view",
      "type": "function"
    },
    {
      "inputs": [],
      "name": "renounceOwnership",
      "outputs": [],
      "stateMutability": "nonpayable",
      "type": "function"
    },
    {
      "inputs": [],
      "name": "sumToBePaidForEveryToken",
      "outputs": [
        {
          "internalType": "uint256",
          "name": "",
          "type": "uint256"
        }
      ],
      "stateMutability": "view",
      "type": "function"
    },
    {
      "inputs": [
        {
          "internalType": "bytes4",
          "name": "interfaceId",
          "type": "bytes4"
        }
      ],
      "name": "supportsInterface",
      "outputs": [
        {
          "internalType": "bool",
          "name": "",
          "type": "bool"
        }
      ],
      "stateMutability": "view",
      "type": "function"
    },
    {
      "inputs": [],
      "name": "symbol",
      "outputs": [
        {
          "internalType": "string",
          "name": "",
          "type": "string"
        }
      ],
      "stateMutability": "view",
      "type": "function"
    },
    {
      "inputs": [],
      "name": "timeOfPayment",
      "outputs": [
        {
          "internalType": "string",
          "name": "",
          "type": "string"
        }
      ],
      "stateMutability": "view",
      "type": "function"
    },
    {
      "inputs": [],
      "name": "totalSupply",
      "outputs": [
        {
          "internalType": "uint256",
          "name": "",
          "type": "uint256"
        }
      ],
      "stateMutability": "view",
      "type": "function"
    },
    {
      "inputs": [
        {
          "internalType": "address",
          "name": "to",
          "type": "address"
        },
        {
          "internalType": "uint256",
          "name": "value",
          "type": "uint256"
        }
      ],
      "name": "transfer",
      "outputs": [
        {
          "internalType": "bool",
          "name": "",
          "type": "bool"
        }
      ],
      "stateMutability": "nonpayable",
      "type": "function"
    },
    {
      "inputs": [
        {
          "internalType": "address",
          "name": "to",
          "type": "address"
        },
        {
          "internalType": "uint256",
          "name": "value",
          "type": "uint256"
        }
      ],
      "name": "transferAndCall",
      "outputs": [
        {
          "internalType": "bool",
          "name": "",
          "type": "bool"
        }
      ],
      "stateMutability": "nonpayable",
      "type": "function"
    },
    {
      "inputs": [
        {
          "internalType": "address",
          "name": "to",
          "type": "address"
        },
        {
          "internalType": "uint256",
          "name": "value",
          "type": "uint256"
        },
        {
          "internalType": "bytes",
          "name": "data",
          "type": "bytes"
        }
      ],
      "name": "transferAndCall",
      "outputs": [
        {
          "internalType": "bool",
          "name": "",
          "type": "bool"
        }
      ],
      "stateMutability": "nonpayable",
      "type": "function"
    },
    {
      "inputs": [
        {
          "internalType": "address",
          "name": "from",
          "type": "address"
        },
        {
          "internalType": "address",
          "name": "to",
          "type": "address"
        },
        {
          "internalType": "uint256",
          "name": "value",
          "type": "uint256"
        }
      ],
      "name": "transferFrom",
      "outputs": [
        {
          "internalType": "bool",
          "name": "",
          "type": "bool"
        }
      ],
      "stateMutability": "nonpayable",
      "type": "function"
    },
    {
      "inputs": [
        {
          "internalType": "address",
          "name": "from",
          "type": "address"
        },
        {
          "internalType": "address",
          "name": "to",
          "type": "address"
        },
        {
          "internalType": "uint256",
          "name": "value",
          "type": "uint256"
        },
        {
          "internalType": "bytes",
          "name": "data",
          "type": "bytes"
        }
      ],
      "name": "transferFromAndCall",
      "outputs": [
        {
          "internalType": "bool",
          "name": "",
          "type": "bool"
        }
      ],
      "stateMutability": "nonpayable",
      "type": "function"
    },
    {
      "inputs": [
        {
          "internalType": "address",
          "name": "from",
          "type": "address"
        },
        {
          "internalType": "address",
          "name": "to",
          "type": "address"
        },
        {
          "internalType": "uint256",
          "name": "value",
          "type": "uint256"
        }
      ],
      "name": "transferFromAndCall",
      "outputs": [
        {
          "internalType": "bool",
          "name": "",
          "type": "bool"
        }
      ],
      "stateMutability": "nonpayable",
      "type": "function"
    },
    {
      "inputs": [
        {
          "internalType": "address",
          "name": "newOwner",
          "type": "address"
        }
      ],
      "name": "transferOwnership",
      "outputs": [],
      "stateMutability": "nonpayable",
      "type": "function"
    }
  ],
  "bytecode": "0x61040060405261027f61016081815290612246610180396009906100239082610604565b506040518060800160405280604b81526020016124c5604b9139600a9061004a9082610604565b50604080518082019091526008815267185d081cda59da1d60c21b6020820152600b906100779082610604565b5060408051808201909152600a8152694c6f6e646f6e2c20554b60b01b6020820152600d906100a69082610604565b5060405180606001604052806027815260200161221f60279139600e906100cd9082610604565b5060408051808201909152601a81527f3132204d61696e205374726565742c204c6f6e646f6e2c20554b000000000000602082015260109061010f9082610604565b506040805180820190915260038152621554d160ea1b60208201526011906101379082610604565b506001601255604051806060016040528060278152602001612510602791396013906101639082610604565b5034801561016f575f5ffd5b5060405161253738038061253783398101604081905261018e916106be565b6040518060400160405280600f81526020016e42696c6c734f6645786368616e676560881b81525080604051806040016040528060018152602001603160f81b815250336040518060400160405280600f81526020016e42696c6c734f6645786368616e676560881b815250604051806040016040528060038152602001622127a360e91b81525081600390816102259190610604565b5060046102328282610604565b5050506001600160a01b03811661026357604051631e4fbdf760e01b81525f60048201526024015b60405180910390fd5b61026c8161034e565b5061027882600661039f565b6101205261028781600761039f565b61014052815160208084019190912060e052815190820120610100524660a05261031360e05161010051604080517f8b73c3c69bb8fe3d512ecc4cf759cc79239f7b179b0ffacaa9a75d522b39400f60208201529081019290925260608201524660808201523060a08201525f9060c00160405160208183030381529060405280519060200120905090565b60805250503060c0525042600c55601480546001600160a01b0319166001600160a01b038316179055610348336127106103d1565b50610762565b600580546001600160a01b038381166001600160a01b0319831681179093556040519116919082907f8be0079c531659141344cd1fd0a4f28419497f9722a3daafe3b4186f6b6457e0905f90a35050565b5f6020835110156103ba576103b383610409565b90506103cb565b816103c58482610604565b5060ff90505b92915050565b6001600160a01b0382166103fa5760405163ec442f0560e01b81525f600482015260240161025a565b6104055f8383610446565b5050565b5f5f829050601f81511115610433578260405163305a27a960e01b815260040161025a91906106eb565b805161043e82610720565b179392505050565b6001600160a01b038316610470578060025f8282546104659190610743565b909155506104e09050565b6001600160a01b0383165f90815260208190526040902054818110156104c25760405163391434e360e21b81526001600160a01b0385166004820152602481018290526044810183905260640161025a565b6001600160a01b0384165f9081526020819052604090209082900390555b6001600160a01b0382166104fc5760028054829003905561051a565b6001600160a01b0382165f9081526020819052604090208054820190555b816001600160a01b0316836001600160a01b03167fddf252ad1be2c89b69c2b068fc378daa952ba7f163c4a11628f55a4df523b3ef8360405161055f91815260200190565b60405180910390a3505050565b634e487b7160e01b5f52604160045260245ffd5b600181811c9082168061059457607f821691505b6020821081036105b257634e487b7160e01b5f52602260045260245ffd5b50919050565b601f8211156105ff57805f5260205f20601f840160051c810160208510156105dd5750805b601f840160051c820191505b818110156105fc575f81556001016105e9565b50505b505050565b81516001600160401b0381111561061d5761061d61056c565b6106318161062b8454610580565b846105b8565b6020601f821160018114610663575f831561064c5750848201515b5f19600385901b1c1916600184901b1784556105fc565b5f84815260208120601f198516915b828110156106925787850151825560209485019460019092019101610672565b50848210156106af57868401515f19600387901b60f8161c191681555b50505050600190811b01905550565b5f602082840312156106ce575f5ffd5b81516001600160a01b03811681146106e4575f5ffd5b9392505050565b602081525f82518060208401528060208501604085015e5f604082850101526040601f19601f83011684010191505092915050565b805160208083015191908110156105b2575f1960209190910360031b1b16919050565b808201808211156103cb57634e487b7160e01b5f52601160045260245ffd5b60805160a05160c05160e051610100516101205161014051611a6c6107b35f395f610f6101525f610f3401525f610cde01525f610cb601525f610c1101525f610c3b01525f610c650152611a6c5ff3fe608060405234801561000f575f5ffd5b5060043610610234575f3560e01c806379cc679011610135578063c1d34b89116100b4578063d8fbe99411610079578063d8fbe99414610474578063dd62ed3e14610487578063dffb4c6a146104bf578063e5a6b10f146104c8578063f2fde38b146104d0575f5ffd5b8063c1d34b8914610420578063c8f280b214610433578063cae9ca5114610446578063d505accf14610459578063d6d0aa411461046c575f5ffd5b806392b08538116100fa57806392b08538146103e157806395d89b41146103ea5780639a2cf241146103f2578063a9059cbb14610405578063bf15071d14610418575f5ffd5b806379cc6790146103725780637ecebe001461038557806384b0196e146103985780638da5cb5b146103b35780638e962277146103d8575f5ffd5b8063313ce567116101c157806365b0834e1161018657806365b0834e1461032a5780636ac4801e1461033257806370a082311461033a578063715018a6146103625780637284e4161461036a575f5ffd5b8063313ce567146102d85780633177029f146102e75780633644e515146102fa5780634000aea01461030257806342966c6814610315575f5ffd5b806311bc53151161020757806311bc5315146102905780631296ee621461029857806318160ddd146102ab57806323b872dd146102bd5780632852b71c146102d0575f5ffd5b806301ffc9a71461023857806303410f901461026057806306fdde0314610275578063095ea7b31461027d575b5f5ffd5b61024b6102463660046115b3565b6104e3565b60405190151581526020015b60405180910390f35b610268610519565b60405161025791906115fc565b6102686105a5565b61024b61028b366004611629565b610635565b61026861064c565b61024b6102a6366004611629565b610659565b6002545b604051908152602001610257565b61024b6102cb366004611651565b61067a565b61024b61069d565b60405160128152602001610257565b61024b6102f5366004611629565b610780565b6102af61079a565b61024b61031036600461172a565b6107a8565b61032861032336600461177d565b6107ef565b005b6102686107fc565b610268610809565b6102af610348366004611794565b6001600160a01b03165f9081526020819052604090205490565b610328610816565b610268610829565b610328610380366004611629565b610836565b6102af610393366004611794565b61084f565b6103a061086c565b60405161025797969594939291906117ad565b6005546001600160a01b03165b6040516001600160a01b039091168152602001610257565b6102af600c5481565b6102af60125481565b6102686108ae565b600f546103c0906001600160a01b031681565b61024b610413366004611629565b6108bd565b6102686108ca565b61024b61042e366004611843565b6108d7565b6014546103c0906001600160a01b031681565b61024b61045436600461172a565b610927565b6103286104673660046118a7565b61096d565b610268610aa3565b61024b610482366004611651565b610ab0565b6102af610495366004611914565b6001600160a01b039182165f90815260016020908152604080832093909416825291909152205490565b6102af60155481565b610268610ad3565b6103286104de366004611794565b610ae0565b5f6001600160e01b0319821663b0202a1160e01b148061051357506301ffc9a760e01b6001600160e01b03198316145b92915050565b600b805461052690611945565b80601f016020809104026020016040519081016040528092919081815260200182805461055290611945565b801561059d5780601f106105745761010080835404028352916020019161059d565b820191905f5260205f20905b81548152906001019060200180831161058057829003601f168201915b505050505081565b6060600380546105b490611945565b80601f01602080910402602001604051908101604052809291908181526020018280546105e090611945565b801561062b5780601f106106025761010080835404028352916020019161062b565b820191905f5260205f20905b81548152906001019060200180831161060e57829003601f168201915b5050505050905090565b5f33610642818585610b1a565b5060019392505050565b600e805461052690611945565b5f610673838360405180602001604052805f8152506107a8565b9392505050565b5f33610687858285610b2c565b610692858585610ba8565b506001949350505050565b6014545f906001600160a01b031633146106fe5760405162461bcd60e51b815260206004820152601860248201527f4e6f7420617574686f72697a656420746f20616363657074000000000000000060448201526064015b60405180910390fd5b601554156107415760405162461bcd60e51b815260206004820152601060248201526f416363657074656420616c726561647960801b60448201526064016106f5565b4260158190556040519081527ff51c18b16ee7a02f583aa75c08bc9f1ddbf0fcfc9f66188883b6bc0c4fb547ed9060200160405180910390a150600190565b5f610673838360405180602001604052805f815250610927565b5f6107a3610c05565b905090565b5f6107b384846108bd565b6107e25760405163118d81d760e11b81526001600160a01b0385166004820152602481018490526044016106f5565b6106423333868686610d2e565b6107f93382610e7b565b50565b6010805461052690611945565b600d805461052690611945565b61081e610eaf565b6108275f610edc565b565b6009805461052690611945565b610841823383610b2c565b61084b8282610e7b565b5050565b6001600160a01b0381165f90815260086020526040812054610513565b5f6060805f5f5f606061087d610f2d565b610885610f5a565b604080515f80825260208201909252600f60f81b9b939a50919850469750309650945092509050565b6060600480546105b490611945565b5f33610642818585610ba8565b600a805461052690611945565b5f6108e385858561067a565b61091a57604051635ab42af360e11b81526001600160a01b03808716600483015285166024820152604481018490526064016106f5565b6106923386868686610d2e565b5f6109328484610635565b61096157604051631439557160e21b81526001600160a01b0385166004820152602481018490526044016106f5565b61064233858585610f87565b834211156109915760405163313c898160e11b8152600481018590526024016106f5565b5f7f6e71edae12b1b97f4d1f60370fef10105fa2faae0126114a169c64845d6126c98888886109dc8c6001600160a01b03165f90815260086020526040902080546001810190915590565b6040805160208101969096526001600160a01b0394851690860152929091166060840152608083015260a082015260c0810186905260e0016040516020818303038152906040528051906020012090505f610a36826110c1565b90505f610a45828787876110ed565b9050896001600160a01b0316816001600160a01b031614610a8c576040516325c0072360e11b81526001600160a01b0380831660048301528b1660248201526044016106f5565b610a978a8a8a610b1a565b50505050505050505050565b6013805461052690611945565b5f610acb84848460405180602001604052805f8152506108d7565b949350505050565b6011805461052690611945565b610ae8610eaf565b6001600160a01b038116610b1157604051631e4fbdf760e01b81525f60048201526024016106f5565b6107f981610edc565b610b278383836001611119565b505050565b6001600160a01b038381165f908152600160209081526040808320938616835292905220545f19811015610ba25781811015610b9457604051637dc7a0d960e11b81526001600160a01b038416600482015260248101829052604481018390526064016106f5565b610ba284848484035f611119565b50505050565b6001600160a01b038316610bd157604051634b637e8f60e11b81525f60048201526024016106f5565b6001600160a01b038216610bfa5760405163ec442f0560e01b81525f60048201526024016106f5565b610b278383836111eb565b5f306001600160a01b037f000000000000000000000000000000000000000000000000000000000000000016148015610c5d57507f000000000000000000000000000000000000000000000000000000000000000046145b15610c8757507f000000000000000000000000000000000000000000000000000000000000000090565b6107a3604080517f8b73c3c69bb8fe3d512ecc4cf759cc79239f7b179b0ffacaa9a75d522b39400f60208201527f0000000000000000000000000000000000000000000000000000000000000000918101919091527f000000000000000000000000000000000000000000000000000000000000000060608201524660808201523060a08201525f9060c00160405160208183030381529060405280519060200120905090565b826001600160a01b03163b5f03610d63576040516322a5b36760e21b81526001600160a01b03841660048201526024016106f5565b604051632229f29760e21b81526001600160a01b038416906388a7ca5c90610d9590889088908790879060040161197d565b6020604051808303815f875af1925050508015610dcf575060408051601f3d908101601f19168201909252610dcc918101906119b9565b60015b610e36573d808015610dfc576040519150601f19603f3d011682016040523d82523d5f602084013e610e01565b606091505b5080515f03610e2e576040516322a5b36760e21b81526001600160a01b03851660048201526024016106f5565b805160208201fd5b6001600160e01b03198116632229f29760e21b14610e72576040516322a5b36760e21b81526001600160a01b03851660048201526024016106f5565b505b5050505050565b6001600160a01b038216610ea457604051634b637e8f60e11b81525f60048201526024016106f5565b61084b825f836111eb565b6005546001600160a01b031633146108275760405163118cdaa760e01b81523360048201526024016106f5565b600580546001600160a01b038381166001600160a01b0319831681179093556040519116919082907f8be0079c531659141344cd1fd0a4f28419497f9722a3daafe3b4186f6b6457e0905f90a35050565b60606107a37f00000000000000000000000000000000000000000000000000000000000000006006611311565b60606107a37f00000000000000000000000000000000000000000000000000000000000000006007611311565b826001600160a01b03163b5f03610fbc5760405163deb6d3ed60e01b81526001600160a01b03841660048201526024016106f5565b6040516307b04a2d60e41b81526001600160a01b03841690637b04a2d090610fec908790869086906004016119d4565b6020604051808303815f875af1925050508015611026575060408051601f3d908101601f19168201909252611023918101906119b9565b60015b611085573d808015611053576040519150601f19603f3d011682016040523d82523d5f602084013e611058565b606091505b5080515f03610e2e5760405163deb6d3ed60e01b81526001600160a01b03851660048201526024016106f5565b6001600160e01b031981166307b04a2d60e41b14610e745760405163deb6d3ed60e01b81526001600160a01b03851660048201526024016106f5565b5f6105136110cd610c05565b8360405161190160f01b8152600281019290925260228201526042902090565b5f5f5f5f6110fd888888886113ba565b92509250925061110d8282611482565b50909695505050505050565b6001600160a01b0384166111425760405163e602df0560e01b81525f60048201526024016106f5565b6001600160a01b03831661116b57604051634a1406b160e11b81525f60048201526024016106f5565b6001600160a01b038085165f9081526001602090815260408083209387168352929052208290558015610ba257826001600160a01b0316846001600160a01b03167f8c5be1e5ebec7d5bd14f71427d1e84f3dd0314c0f7b2291e5b200ac8c7c3b925846040516111dd91815260200190565b60405180910390a350505050565b6001600160a01b038316611215578060025f82825461120a9190611a03565b909155506112859050565b6001600160a01b0383165f90815260208190526040902054818110156112675760405163391434e360e21b81526001600160a01b038516600482015260248101829052604481018390526064016106f5565b6001600160a01b0384165f9081526020819052604090209082900390555b6001600160a01b0382166112a1576002805482900390556112bf565b6001600160a01b0382165f9081526020819052604090208054820190555b816001600160a01b0316836001600160a01b03167fddf252ad1be2c89b69c2b068fc378daa952ba7f163c4a11628f55a4df523b3ef8360405161130491815260200190565b60405180910390a3505050565b606060ff831461132b576113248361153a565b9050610513565b81805461133790611945565b80601f016020809104026020016040519081016040528092919081815260200182805461136390611945565b80156113ae5780601f10611385576101008083540402835291602001916113ae565b820191905f5260205f20905b81548152906001019060200180831161139157829003601f168201915b50505050509050610513565b5f80807f7fffffffffffffffffffffffffffffff5d576e7357a4501ddfe92f46681b20a08411156113f357505f91506003905082611478565b604080515f808252602082018084528a905260ff891692820192909252606081018790526080810186905260019060a0016020604051602081039080840390855afa158015611444573d5f5f3e3d5ffd5b5050604051601f1901519150506001600160a01b03811661146f57505f925060019150829050611478565b92505f91508190505b9450945094915050565b5f82600381111561149557611495611a22565b0361149e575050565b60018260038111156114b2576114b2611a22565b036114d05760405163f645eedf60e01b815260040160405180910390fd5b60028260038111156114e4576114e4611a22565b036115055760405163fce698f760e01b8152600481018290526024016106f5565b600382600381111561151957611519611a22565b0361084b576040516335e2f38360e21b8152600481018290526024016106f5565b60605f61154683611577565b6040805160208082528183019092529192505f91906020820181803683375050509182525060208101929092525090565b5f60ff8216601f81111561051357604051632cd44ac360e21b815260040160405180910390fd5b6001600160e01b0319811681146107f9575f5ffd5b5f602082840312156115c3575f5ffd5b81356106738161159e565b5f81518084528060208401602086015e5f602082860101526020601f19601f83011685010191505092915050565b602081525f61067360208301846115ce565b80356001600160a01b0381168114611624575f5ffd5b919050565b5f5f6040838503121561163a575f5ffd5b6116438361160e565b946020939093013593505050565b5f5f5f60608486031215611663575f5ffd5b61166c8461160e565b925061167a6020850161160e565b929592945050506040919091013590565b634e487b7160e01b5f52604160045260245ffd5b5f82601f8301126116ae575f5ffd5b813567ffffffffffffffff8111156116c8576116c861168b565b604051601f8201601f19908116603f0116810167ffffffffffffffff811182821017156116f7576116f761168b565b60405281815283820160200185101561170e575f5ffd5b816020850160208301375f918101602001919091529392505050565b5f5f5f6060848603121561173c575f5ffd5b6117458461160e565b925060208401359150604084013567ffffffffffffffff811115611767575f5ffd5b6117738682870161169f565b9150509250925092565b5f6020828403121561178d575f5ffd5b5035919050565b5f602082840312156117a4575f5ffd5b6106738261160e565b60ff60f81b8816815260e060208201525f6117cb60e08301896115ce565b82810360408401526117dd81896115ce565b606084018890526001600160a01b038716608085015260a0840186905283810360c0850152845180825260208087019350909101905f5b81811015611832578351835260209384019390920191600101611814565b50909b9a5050505050505050505050565b5f5f5f5f60808587031215611856575f5ffd5b61185f8561160e565b935061186d6020860161160e565b925060408501359150606085013567ffffffffffffffff81111561188f575f5ffd5b61189b8782880161169f565b91505092959194509250565b5f5f5f5f5f5f5f60e0888a0312156118bd575f5ffd5b6118c68861160e565b96506118d46020890161160e565b95506040880135945060608801359350608088013560ff811681146118f7575f5ffd5b9699959850939692959460a0840135945060c09093013592915050565b5f5f60408385031215611925575f5ffd5b61192e8361160e565b915061193c6020840161160e565b90509250929050565b600181811c9082168061195957607f821691505b60208210810361197757634e487b7160e01b5f52602260045260245ffd5b50919050565b6001600160a01b03858116825284166020820152604081018390526080606082018190525f906119af908301846115ce565b9695505050505050565b5f602082840312156119c9575f5ffd5b81516106738161159e565b60018060a01b0384168152826020820152606060408201525f6119fa60608301846115ce565b95945050505050565b8082018082111561051357634e487b7160e01b5f52601160045260245ffd5b634e487b7160e01b5f52602160045260245ffdfea2646970667358221220d67148e12dd916446697bcf8df952dfdcf84a19072ad27f1711c95793103d90c64736f6c634300081c0033447261776572204c54442e2c203130204d61696e205374726565742c204c6f6e646f6e2c20554b457665727920746f6b656e202845524332302920696e207468697320736d61727420636f6e747261637420697320612062696c6c206f662065786368616e676520696e20626c616e6b202d2070617961626c6520746f20626561726572202862656172657220697320746865206f776e6572206f662074686520457468657265756d206164647265737320776974636820686f6c64732074686520746f6b656e732c206f722074686520706572736f6e2068652f73686520726570726573656e7473292c20627574206e6f7420746f206f72646572202d2074686174206d65616e73206e6f20656e646f7273656d656e7420706f737369626c6520616e642074686520746f6b656e20686f6c6465722063616e206f6e6c79207472616e736665722074686520746f6b656e202862696c6c206f662065786368616e676520696e20626c616e6b2920697473656c662e20496e207468652063617365206f662074686520457468657265756d20626c6f636b636861696e20666f726b2c2074686520626c6f636b636861696e20746861742068617320746865206869676865737420686173687261746520697320636f6e736964657265642076616c69642c20616e6420616c6c206f746865727320617265206e6f7420636f6e7369646572656420612076616c69642072656769737472793b2062696c6c207061796d656e7420736574746c65732062696c6c206576656e2069662076616c696420626c6f636b636861696e2028686173687261746529206368616e67657320616674657220746865207061796d656e742e20416c6c20457468657265756d2074657374206e6574776f726b7320617265206e6f742076616c6964207265676973747269657350617920746f206265617265722028746f6b656e686f6c646572292c20627574206e6f7420746f206f726465722c207468652073756d206f66203120286f6e652920555320646f6c6c61724472617765652042616e6b2c203132204d61696e205374726565742c204c6f6e646f6e2c20554b",
  "linkReferences": {},
  "deployedLinkReferences": {},
  "immutableReferences": {
    "3941": [
      {
        "length": 32,
        "start": 3173
      }
    ],
    "3943": [
      {
        "length": 32,
        "start": 3131
      }
    ],
    "3945": [
      {
        "length": 32,
        "start": 3089
      }
    ],
    "3947": [
      {
        "length": 32,
        "start": 3254
      }
    ],
    "3949": [
      {
        "length": 32,
        "start": 3294
      }
    ],
    "3952": [
      {
        "length": 32,
        "start": 3892
      }
    ],
    "3955": [
      {
        "length": 32,
        "start": 3937
      }
    ]
  },
  "inputSourceName": "project/contracts/BillsOfExchange.sol",
  "buildInfoId": "solc-0_8_28-e99760131c9106a544bb1cdf8689dc909eea963e"
}